{
  "_format": "hh-sol-artifact-1",
  "contractName": "Conditional",
  "sourceName": "contracts/ConditionalMint.sol",
  "abi": [
    {
      "inputs": [
        {
          "internalType": "address",
          "name": "initialOwner",
          "type": "address"
        },
        {
          "internalType": "address",
          "name": "_platformWallet",
          "type": "address"
        }
      ],
      "stateMutability": "nonpayable",
      "type": "constructor"
    },
    {
      "inputs": [
        {
          "internalType": "address",
          "name": "sender",
          "type": "address"
        },
        {
          "internalType": "uint256",
          "name": "tokenId",
          "type": "uint256"
        },
        {
          "internalType": "address",
          "name": "owner",
          "type": "address"
        }
      ],
      "name": "ERC721IncorrectOwner",
      "type": "error"
    },
    {
      "inputs": [
        {
          "internalType": "address",
          "name": "operator",
          "type": "address"
        },
        {
          "internalType": "uint256",
          "name": "tokenId",
          "type": "uint256"
        }
      ],
      "name": "ERC721InsufficientApproval",
      "type": "error"
    },
    {
      "inputs": [
        {
          "internalType": "address",
          "name": "approver",
          "type": "address"
        }
      ],
      "name": "ERC721InvalidApprover",
      "type": "error"
    },
    {
      "inputs": [
        {
          "internalType": "address",
          "name": "operator",
          "type": "address"
        }
      ],
      "name": "ERC721InvalidOperator",
      "type": "error"
    },
    {
      "inputs": [
        {
          "internalType": "address",
          "name": "owner",
          "type": "address"
        }
      ],
      "name": "ERC721InvalidOwner",
      "type": "error"
    },
    {
      "inputs": [
        {
          "internalType": "address",
          "name": "receiver",
          "type": "address"
        }
      ],
      "name": "ERC721InvalidReceiver",
      "type": "error"
    },
    {
      "inputs": [
        {
          "internalType": "address",
          "name": "sender",
          "type": "address"
        }
      ],
      "name": "ERC721InvalidSender",
      "type": "error"
    },
    {
      "inputs": [
        {
          "internalType": "uint256",
          "name": "tokenId",
          "type": "uint256"
        }
      ],
      "name": "ERC721NonexistentToken",
      "type": "error"
    },
    {
      "inputs": [
        {
          "internalType": "address",
          "name": "owner",
          "type": "address"
        }
      ],
      "name": "OwnableInvalidOwner",
      "type": "error"
    },
    {
      "inputs": [
        {
          "internalType": "address",
          "name": "account",
          "type": "address"
        }
      ],
      "name": "OwnableUnauthorizedAccount",
      "type": "error"
    },
    {
      "anonymous": false,
      "inputs": [
        {
          "indexed": true,
          "internalType": "address",
          "name": "owner",
          "type": "address"
        },
        {
          "indexed": true,
          "internalType": "address",
          "name": "approved",
          "type": "address"
        },
        {
          "indexed": true,
          "internalType": "uint256",
          "name": "tokenId",
          "type": "uint256"
        }
      ],
      "name": "Approval",
      "type": "event"
    },
    {
      "anonymous": false,
      "inputs": [
        {
          "indexed": true,
          "internalType": "address",
          "name": "owner",
          "type": "address"
        },
        {
          "indexed": true,
          "internalType": "address",
          "name": "operator",
          "type": "address"
        },
        {
          "indexed": false,
          "internalType": "bool",
          "name": "approved",
          "type": "bool"
        }
      ],
      "name": "ApprovalForAll",
      "type": "event"
    },
    {
      "anonymous": false,
      "inputs": [
        {
          "indexed": false,
          "internalType": "uint256",
          "name": "_fromTokenId",
          "type": "uint256"
        },
        {
          "indexed": false,
          "internalType": "uint256",
          "name": "_toTokenId",
          "type": "uint256"
        }
      ],
      "name": "BatchMetadataUpdate",
      "type": "event"
    },
    {
      "anonymous": false,
      "inputs": [
        {
          "indexed": false,
          "internalType": "uint256",
          "name": "_tokenId",
          "type": "uint256"
        }
      ],
      "name": "MetadataUpdate",
      "type": "event"
    },
    {
      "anonymous": false,
      "inputs": [
        {
          "indexed": true,
          "internalType": "address",
          "name": "to",
          "type": "address"
        },
        {
          "indexed": false,
          "internalType": "uint256",
          "name": "tokenId",
          "type": "uint256"
        }
      ],
      "name": "NFTMinted",
      "type": "event"
    },
    {
      "anonymous": false,
      "inputs": [
        {
          "indexed": true,
          "internalType": "address",
          "name": "previousOwner",
          "type": "address"
        },
        {
          "indexed": true,
          "internalType": "address",
          "name": "newOwner",
          "type": "address"
        }
      ],
      "name": "OwnershipTransferred",
      "type": "event"
    },
    {
      "anonymous": false,
      "inputs": [
        {
          "indexed": true,
          "internalType": "address",
          "name": "buyer",
          "type": "address"
        },
        {
          "indexed": false,
          "internalType": "uint256",
          "name": "value",
          "type": "uint256"
        }
      ],
      "name": "PurchaseCreated",
      "type": "event"
    },
    {
      "anonymous": false,
      "inputs": [
        {
          "indexed": true,
          "internalType": "address",
          "name": "to",
          "type": "address"
        },
        {
          "indexed": false,
          "internalType": "uint256",
          "name": "amount",
          "type": "uint256"
        }
      ],
      "name": "Refunded",
      "type": "event"
    },
    {
      "anonymous": false,
      "inputs": [
        {
          "indexed": true,
          "internalType": "address",
          "name": "from",
          "type": "address"
        },
        {
          "indexed": true,
          "internalType": "address",
          "name": "to",
          "type": "address"
        },
        {
          "indexed": true,
          "internalType": "uint256",
          "name": "tokenId",
          "type": "uint256"
        }
      ],
      "name": "Transfer",
      "type": "event"
    },
    {
      "stateMutability": "payable",
      "type": "fallback"
    },
    {
      "inputs": [],
      "name": "PRICE",
      "outputs": [
        {
          "internalType": "uint256",
          "name": "",
          "type": "uint256"
        }
      ],
      "stateMutability": "view",
      "type": "function"
    },
    {
      "inputs": [
        {
          "internalType": "address",
          "name": "to",
          "type": "address"
        },
        {
          "internalType": "uint256",
          "name": "tokenId",
          "type": "uint256"
        }
      ],
      "name": "approve",
      "outputs": [],
      "stateMutability": "nonpayable",
      "type": "function"
    },
    {
      "inputs": [
        {
          "internalType": "address",
          "name": "owner",
          "type": "address"
        }
      ],
      "name": "balanceOf",
      "outputs": [
        {
          "internalType": "uint256",
          "name": "",
          "type": "uint256"
        }
      ],
      "stateMutability": "view",
      "type": "function"
    },
    {
      "inputs": [
        {
          "internalType": "uint256",
          "name": "tokenId",
          "type": "uint256"
        }
      ],
      "name": "getApproved",
      "outputs": [
        {
          "internalType": "address",
          "name": "",
          "type": "address"
        }
      ],
      "stateMutability": "view",
      "type": "function"
    },
    {
      "inputs": [
        {
          "internalType": "address",
          "name": "owner",
          "type": "address"
        },
        {
          "internalType": "address",
          "name": "operator",
          "type": "address"
        }
      ],
      "name": "isApprovedForAll",
      "outputs": [
        {
          "internalType": "bool",
          "name": "",
          "type": "bool"
        }
      ],
      "stateMutability": "view",
      "type": "function"
    },
    {
      "inputs": [],
      "name": "name",
      "outputs": [
        {
          "internalType": "string",
          "name": "",
          "type": "string"
        }
      ],
      "stateMutability": "view",
      "type": "function"
    },
    {
      "inputs": [],
      "name": "nextTokenId",
      "outputs": [
        {
          "internalType": "uint256",
          "name": "",
          "type": "uint256"
        }
      ],
      "stateMutability": "view",
      "type": "function"
    },
    {
      "inputs": [],
      "name": "owner",
      "outputs": [
        {
          "internalType": "address",
          "name": "",
          "type": "address"
        }
      ],
      "stateMutability": "view",
      "type": "function"
    },
    {
      "inputs": [
        {
          "internalType": "uint256",
          "name": "tokenId",
          "type": "uint256"
        }
      ],
      "name": "ownerOf",
      "outputs": [
        {
          "internalType": "address",
          "name": "",
          "type": "address"
        }
      ],
      "stateMutability": "view",
      "type": "function"
    },
    {
      "inputs": [],
      "name": "platformWallet",
      "outputs": [
        {
          "internalType": "address",
          "name": "",
          "type": "address"
        }
      ],
      "stateMutability": "view",
      "type": "function"
    },
    {
      "inputs": [],
      "name": "purchase",
      "outputs": [],
      "stateMutability": "payable",
      "type": "function"
    },
    {
      "inputs": [
        {
          "internalType": "address",
          "name": "to",
          "type": "address"
        },
        {
          "internalType": "uint256",
          "name": "amount",
          "type": "uint256"
        }
      ],
      "name": "refund",
      "outputs": [],
      "stateMutability": "nonpayable",
      "type": "function"
    },
    {
      "inputs": [],
      "name": "renounceOwnership",
      "outputs": [],
      "stateMutability": "nonpayable",
      "type": "function"
    },
    {
      "inputs": [
        {
          "internalType": "address",
          "name": "to",
          "type": "address"
        },
        {
          "internalType": "string",
          "name": "uri",
          "type": "string"
        }
      ],
      "name": "safeMint",
      "outputs": [],
      "stateMutability": "nonpayable",
      "type": "function"
    },
    {
      "inputs": [
        {
          "internalType": "address",
          "name": "from",
          "type": "address"
        },
        {
          "internalType": "address",
          "name": "to",
          "type": "address"
        },
        {
          "internalType": "uint256",
          "name": "tokenId",
          "type": "uint256"
        }
      ],
      "name": "safeTransferFrom",
      "outputs": [],
      "stateMutability": "nonpayable",
      "type": "function"
    },
    {
      "inputs": [
        {
          "internalType": "address",
          "name": "from",
          "type": "address"
        },
        {
          "internalType": "address",
          "name": "to",
          "type": "address"
        },
        {
          "internalType": "uint256",
          "name": "tokenId",
          "type": "uint256"
        },
        {
          "internalType": "bytes",
          "name": "data",
          "type": "bytes"
        }
      ],
      "name": "safeTransferFrom",
      "outputs": [],
      "stateMutability": "nonpayable",
      "type": "function"
    },
    {
      "inputs": [
        {
          "internalType": "address",
          "name": "operator",
          "type": "address"
        },
        {
          "internalType": "bool",
          "name": "approved",
          "type": "bool"
        }
      ],
      "name": "setApprovalForAll",
      "outputs": [],
      "stateMutability": "nonpayable",
      "type": "function"
    },
    {
      "inputs": [
        {
          "internalType": "bytes4",
          "name": "interfaceId",
          "type": "bytes4"
        }
      ],
      "name": "supportsInterface",
      "outputs": [
        {
          "internalType": "bool",
          "name": "",
          "type": "bool"
        }
      ],
      "stateMutability": "view",
      "type": "function"
    },
    {
      "inputs": [],
      "name": "symbol",
      "outputs": [
        {
          "internalType": "string",
          "name": "",
          "type": "string"
        }
      ],
      "stateMutability": "view",
      "type": "function"
    },
    {
      "inputs": [
        {
          "internalType": "uint256",
          "name": "tokenId",
          "type": "uint256"
        }
      ],
      "name": "tokenURI",
      "outputs": [
        {
          "internalType": "string",
          "name": "",
          "type": "string"
        }
      ],
      "stateMutability": "view",
      "type": "function"
    },
    {
      "inputs": [
        {
          "internalType": "address",
          "name": "from",
          "type": "address"
        },
        {
          "internalType": "address",
          "name": "to",
          "type": "address"
        },
        {
          "internalType": "uint256",
          "name": "tokenId",
          "type": "uint256"
        }
      ],
      "name": "transferFrom",
      "outputs": [],
      "stateMutability": "nonpayable",
      "type": "function"
    },
    {
      "inputs": [
        {
          "internalType": "address",
          "name": "newOwner",
          "type": "address"
        }
      ],
      "name": "transferOwnership",
      "outputs": [],
      "stateMutability": "nonpayable",
      "type": "function"
    },
    {
      "stateMutability": "payable",
      "type": "receive"
    }
  ],
  "bytecode": "0x6080604052600160095534801561001557600080fd5b506040516131dc3803806131dc833981810160405281019061003791906102b9565b816040518060400160405280600b81526020017f436f6e646974696f6e616c0000000000000000000000000000000000000000008152506040518060400160405280600281526020017f434d00000000000000000000000000000000000000000000000000000000000081525081600090816100b39190610549565b5080600190816100c39190610549565b505050600073ffffffffffffffffffffffffffffffffffffffff168173ffffffffffffffffffffffffffffffffffffffff16036101385760006040517f1e4fbdf700000000000000000000000000000000000000000000000000000000815260040161012f919061062a565b60405180910390fd5b6101478161019060201b60201c565b5080600860006101000a81548173ffffffffffffffffffffffffffffffffffffffff021916908373ffffffffffffffffffffffffffffffffffffffff1602179055505050610645565b6000600760009054906101000a900473ffffffffffffffffffffffffffffffffffffffff16905081600760006101000a81548173ffffffffffffffffffffffffffffffffffffffff021916908373ffffffffffffffffffffffffffffffffffffffff1602179055508173ffffffffffffffffffffffffffffffffffffffff168173ffffffffffffffffffffffffffffffffffffffff167f8be0079c531659141344cd1fd0a4f28419497f9722a3daafe3b4186f6b6457e060405160405180910390a35050565b600080fd5b600073ffffffffffffffffffffffffffffffffffffffff82169050919050565b60006102868261025b565b9050919050565b6102968161027b565b81146102a157600080fd5b50565b6000815190506102b38161028d565b92915050565b600080604083850312156102d0576102cf610256565b5b60006102de858286016102a4565b92505060206102ef858286016102a4565b9150509250929050565b600081519050919050565b7f4e487b7100000000000000000000000000000000000000000000000000000000600052604160045260246000fd5b7f4e487b7100000000000000000000000000000000000000000000000000000000600052602260045260246000fd5b6000600282049050600182168061037a57607f821691505b60208210810361038d5761038c610333565b5b50919050565b60008190508160005260206000209050919050565b60006020601f8301049050919050565b600082821b905092915050565b6000600883026103f57fffffffffffffffffffffffffffffffffffffffffffffffffffffffffffffffff826103b8565b6103ff86836103b8565b95508019841693508086168417925050509392505050565b6000819050919050565b6000819050919050565b600061044661044161043c84610417565b610421565b610417565b9050919050565b6000819050919050565b6104608361042b565b61047461046c8261044d565b8484546103c5565b825550505050565b600090565b61048961047c565b610494818484610457565b505050565b5b818110156104b8576104ad600082610481565b60018101905061049a565b5050565b601f8211156104fd576104ce81610393565b6104d7846103a8565b810160208510156104e6578190505b6104fa6104f2856103a8565b830182610499565b50505b505050565b600082821c905092915050565b600061052060001984600802610502565b1980831691505092915050565b6000610539838361050f565b9150826002028217905092915050565b610552826102f9565b67ffffffffffffffff81111561056b5761056a610304565b5b6105758254610362565b6105808282856104bc565b600060209050601f8311600181146105b357600084156105a1578287015190505b6105ab858261052d565b865550610613565b601f1984166105c186610393565b60005b828110156105e9578489015182556001820191506020850194506020810190506105c4565b868310156106065784890151610602601f89168261050f565b8355505b6001600288020188555050505b505050505050565b6106248161027b565b82525050565b600060208201905061063f600083018461061b565b92915050565b612b88806106546000396000f3fe6080604052600436106101395760003560e01c806375794a3c116100ab578063b88d4fde1161006f578063b88d4fde146103f5578063c87b56dd1461041e578063d204c45e1461045b578063e985e9c514610484578063f2fde38b146104c1578063fa2af9da146104ea5761013a565b806375794a3c146103205780638d859f3e1461034b5780638da5cb5b1461037657806395d89b41146103a1578063a22cb465146103cc5761013a565b8063410085df116100fd578063410085df1461023357806342842e0e1461025c5780636352211e1461028557806364edfbf0146102c257806370a08231146102cc578063715018a6146103095761013a565b806301ffc9a71461013c57806306fdde0314610179578063081812fc146101a4578063095ea7b3146101e157806323b872dd1461020a5761013a565b5b005b34801561014857600080fd5b50610163600480360381019061015e9190611ec2565b610515565b6040516101709190611f0a565b60405180910390f35b34801561018557600080fd5b5061018e610527565b60405161019b9190611fb5565b60405180910390f35b3480156101b057600080fd5b506101cb60048036038101906101c6919061200d565b6105b9565b6040516101d8919061207b565b60405180910390f35b3480156101ed57600080fd5b50610208600480360381019061020391906120c2565b6105d5565b005b34801561021657600080fd5b50610231600480360381019061022c9190612102565b6105eb565b005b34801561023f57600080fd5b5061025a600480360381019061025591906120c2565b6106ed565b005b34801561026857600080fd5b50610283600480360381019061027e9190612102565b6107f4565b005b34801561029157600080fd5b506102ac60048036038101906102a7919061200d565b610814565b6040516102b9919061207b565b60405180910390f35b6102ca610826565b005b3480156102d857600080fd5b506102f360048036038101906102ee9190612155565b6108bf565b6040516103009190612191565b60405180910390f35b34801561031557600080fd5b5061031e610979565b005b34801561032c57600080fd5b5061033561098d565b6040516103429190612191565b60405180910390f35b34801561035757600080fd5b50610360610993565b60405161036d9190612191565b60405180910390f35b34801561038257600080fd5b5061038b61099e565b604051610398919061207b565b60405180910390f35b3480156103ad57600080fd5b506103b66109c8565b6040516103c39190611fb5565b60405180910390f35b3480156103d857600080fd5b506103f360048036038101906103ee91906121d8565b610a5a565b005b34801561040157600080fd5b5061041c6004803603810190610417919061234d565b610a70565b005b34801561042a57600080fd5b506104456004803603810190610440919061200d565b610a95565b6040516104529190611fb5565b60405180910390f35b34801561046757600080fd5b50610482600480360381019061047d9190612471565b610aa7565b005b34801561049057600080fd5b506104ab60048036038101906104a691906124cd565b610b31565b6040516104b89190611f0a565b60405180910390f35b3480156104cd57600080fd5b506104e860048036038101906104e39190612155565b610bc5565b005b3480156104f657600080fd5b506104ff610c4b565b60405161050c919061207b565b60405180910390f35b600061052082610c71565b9050919050565b6060600080546105369061253c565b80601f01602080910402602001604051908101604052809291908181526020018280546105629061253c565b80156105af5780601f10610584576101008083540402835291602001916105af565b820191906000526020600020905b81548152906001019060200180831161059257829003601f168201915b5050505050905090565b60006105c482610cd2565b506105ce82610d5a565b9050919050565b6105e782826105e2610d97565b610d9f565b5050565b600073ffffffffffffffffffffffffffffffffffffffff168273ffffffffffffffffffffffffffffffffffffffff160361065d5760006040517f64a0ae92000000000000000000000000000000000000000000000000000000008152600401610654919061207b565b60405180910390fd5b6000610671838361066c610d97565b610db1565b90508373ffffffffffffffffffffffffffffffffffffffff168173ffffffffffffffffffffffffffffffffffffffff16146106e7578382826040517f64283d7b0000000000000000000000000000000000000000000000000000000081526004016106de9392919061256d565b60405180910390fd5b50505050565b6106f5610fcb565b60008273ffffffffffffffffffffffffffffffffffffffff168260405161071b906125d5565b60006040518083038185875af1925050503d8060008114610758576040519150601f19603f3d011682016040523d82523d6000602084013e61075d565b606091505b50509050806107a1576040517f08c379a000000000000000000000000000000000000000000000000000000000815260040161079890612636565b60405180910390fd5b8273ffffffffffffffffffffffffffffffffffffffff167fd7dee2702d63ad89917b6a4da9981c90c4d24f8c2bdfd64c604ecae57d8d0651836040516107e79190612191565b60405180910390a2505050565b61080f83838360405180602001604052806000815250610a70565b505050565b600061081f82610cd2565b9050919050565b662386f26fc10000341461086f576040517f08c379a0000000000000000000000000000000000000000000000000000000008152600401610866906126a2565b60405180910390fd5b3373ffffffffffffffffffffffffffffffffffffffff167fcaae98d1167e9ea3ab4fe8ce8a578dedc6470af818deff24dbc8f4905e52f16e346040516108b59190612191565b60405180910390a2565b60008073ffffffffffffffffffffffffffffffffffffffff168273ffffffffffffffffffffffffffffffffffffffff16036109325760006040517f89c62b64000000000000000000000000000000000000000000000000000000008152600401610929919061207b565b60405180910390fd5b600360008373ffffffffffffffffffffffffffffffffffffffff1673ffffffffffffffffffffffffffffffffffffffff168152602001908152602001600020549050919050565b610981610fcb565b61098b6000611052565b565b60095481565b662386f26fc1000081565b6000600760009054906101000a900473ffffffffffffffffffffffffffffffffffffffff16905090565b6060600180546109d79061253c565b80601f0160208091040260200160405190810160405280929190818152602001828054610a039061253c565b8015610a505780601f10610a2557610100808354040283529160200191610a50565b820191906000526020600020905b815481529060010190602001808311610a3357829003601f168201915b5050505050905090565b610a6c610a65610d97565b8383611118565b5050565b610a7b8484846105eb565b610a8f610a86610d97565b85858585611287565b50505050565b6060610aa082611438565b9050919050565b610aaf610fcb565b600060096000815480929190610ac4906126f1565b919050559050610ad4838261154b565b610ade8183611569565b8273ffffffffffffffffffffffffffffffffffffffff167f4cc0a9c4a99ddc700de1af2c9f916a7cbfdb71f14801ccff94061ad1ef8a804082604051610b249190612191565b60405180910390a2505050565b6000600560008473ffffffffffffffffffffffffffffffffffffffff1673ffffffffffffffffffffffffffffffffffffffff16815260200190815260200160002060008373ffffffffffffffffffffffffffffffffffffffff1673ffffffffffffffffffffffffffffffffffffffff16815260200190815260200160002060009054906101000a900460ff16905092915050565b610bcd610fcb565b600073ffffffffffffffffffffffffffffffffffffffff168173ffffffffffffffffffffffffffffffffffffffff1603610c3f5760006040517f1e4fbdf7000000000000000000000000000000000000000000000000000000008152600401610c36919061207b565b60405180910390fd5b610c4881611052565b50565b600860009054906101000a900473ffffffffffffffffffffffffffffffffffffffff1681565b6000634906490660e01b7bffffffffffffffffffffffffffffffffffffffffffffffffffffffff1916827bffffffffffffffffffffffffffffffffffffffffffffffffffffffff19161480610ccb5750610cca826115c5565b5b9050919050565b600080610cde836116a7565b9050600073ffffffffffffffffffffffffffffffffffffffff168173ffffffffffffffffffffffffffffffffffffffff1603610d5157826040517f7e273289000000000000000000000000000000000000000000000000000000008152600401610d489190612191565b60405180910390fd5b80915050919050565b60006004600083815260200190815260200160002060009054906101000a900473ffffffffffffffffffffffffffffffffffffffff169050919050565b600033905090565b610dac83838360016116e4565b505050565b600080610dbd846116a7565b9050600073ffffffffffffffffffffffffffffffffffffffff168373ffffffffffffffffffffffffffffffffffffffff1614610dff57610dfe8184866118a9565b5b600073ffffffffffffffffffffffffffffffffffffffff168173ffffffffffffffffffffffffffffffffffffffff1614610e9057610e416000856000806116e4565b6001600360008373ffffffffffffffffffffffffffffffffffffffff1673ffffffffffffffffffffffffffffffffffffffff168152602001908152602001600020600082825403925050819055505b600073ffffffffffffffffffffffffffffffffffffffff168573ffffffffffffffffffffffffffffffffffffffff1614610f13576001600360008773ffffffffffffffffffffffffffffffffffffffff1673ffffffffffffffffffffffffffffffffffffffff168152602001908152602001600020600082825401925050819055505b846002600086815260200190815260200160002060006101000a81548173ffffffffffffffffffffffffffffffffffffffff021916908373ffffffffffffffffffffffffffffffffffffffff160217905550838573ffffffffffffffffffffffffffffffffffffffff168273ffffffffffffffffffffffffffffffffffffffff167fddf252ad1be2c89b69c2b068fc378daa952ba7f163c4a11628f55a4df523b3ef60405160405180910390a4809150509392505050565b610fd3610d97565b73ffffffffffffffffffffffffffffffffffffffff16610ff161099e565b73ffffffffffffffffffffffffffffffffffffffff161461105057611014610d97565b6040517f118cdaa7000000000000000000000000000000000000000000000000000000008152600401611047919061207b565b60405180910390fd5b565b6000600760009054906101000a900473ffffffffffffffffffffffffffffffffffffffff16905081600760006101000a81548173ffffffffffffffffffffffffffffffffffffffff021916908373ffffffffffffffffffffffffffffffffffffffff1602179055508173ffffffffffffffffffffffffffffffffffffffff168173ffffffffffffffffffffffffffffffffffffffff167f8be0079c531659141344cd1fd0a4f28419497f9722a3daafe3b4186f6b6457e060405160405180910390a35050565b600073ffffffffffffffffffffffffffffffffffffffff168273ffffffffffffffffffffffffffffffffffffffff160361118957816040517f5b08ba18000000000000000000000000000000000000000000000000000000008152600401611180919061207b565b60405180910390fd5b80600560008573ffffffffffffffffffffffffffffffffffffffff1673ffffffffffffffffffffffffffffffffffffffff16815260200190815260200160002060008473ffffffffffffffffffffffffffffffffffffffff1673ffffffffffffffffffffffffffffffffffffffff16815260200190815260200160002060006101000a81548160ff0219169083151502179055508173ffffffffffffffffffffffffffffffffffffffff168373ffffffffffffffffffffffffffffffffffffffff167f17307eab39ab6107e8899845ad3d59bd9653f200f220920489ca2b5937696c318360405161127a9190611f0a565b60405180910390a3505050565b60008373ffffffffffffffffffffffffffffffffffffffff163b1115611431578273ffffffffffffffffffffffffffffffffffffffff1663150b7a02868685856040518563ffffffff1660e01b81526004016112e6949392919061278e565b6020604051808303816000875af192505050801561132257506040513d601f19601f8201168201806040525081019061131f91906127ef565b60015b6113a6573d8060008114611352576040519150601f19603f3d011682016040523d82523d6000602084013e611357565b606091505b50600081510361139e57836040517f64a0ae92000000000000000000000000000000000000000000000000000000008152600401611395919061207b565b60405180910390fd5b805181602001fd5b63150b7a0260e01b7bffffffffffffffffffffffffffffffffffffffffffffffffffffffff1916817bffffffffffffffffffffffffffffffffffffffffffffffffffffffff19161461142f57836040517f64a0ae92000000000000000000000000000000000000000000000000000000008152600401611426919061207b565b60405180910390fd5b505b5050505050565b606061144382610cd2565b5060006006600084815260200190815260200160002080546114649061253c565b80601f01602080910402602001604051908101604052809291908181526020018280546114909061253c565b80156114dd5780601f106114b2576101008083540402835291602001916114dd565b820191906000526020600020905b8154815290600101906020018083116114c057829003601f168201915b5050505050905060006114ee61196d565b90506000815103611503578192505050611546565b600082511115611538578082604051602001611520929190612858565b60405160208183030381529060405292505050611546565b61154184611984565b925050505b919050565b6115658282604051806020016040528060008152506119ed565b5050565b806006600084815260200190815260200160002090816115899190612a28565b507ff8e1a15aba9398e019f0b49df1a4fde98ee17ae345cb5f6b5e2c27f5033e8ce7826040516115b99190612191565b60405180910390a15050565b60007f80ac58cd000000000000000000000000000000000000000000000000000000007bffffffffffffffffffffffffffffffffffffffffffffffffffffffff1916827bffffffffffffffffffffffffffffffffffffffffffffffffffffffff1916148061169057507f5b5e139f000000000000000000000000000000000000000000000000000000007bffffffffffffffffffffffffffffffffffffffffffffffffffffffff1916827bffffffffffffffffffffffffffffffffffffffffffffffffffffffff1916145b806116a0575061169f82611a11565b5b9050919050565b60006002600083815260200190815260200160002060009054906101000a900473ffffffffffffffffffffffffffffffffffffffff169050919050565b808061171d5750600073ffffffffffffffffffffffffffffffffffffffff168273ffffffffffffffffffffffffffffffffffffffff1614155b1561185157600061172d84610cd2565b9050600073ffffffffffffffffffffffffffffffffffffffff168373ffffffffffffffffffffffffffffffffffffffff161415801561179857508273ffffffffffffffffffffffffffffffffffffffff168173ffffffffffffffffffffffffffffffffffffffff1614155b80156117ab57506117a98184610b31565b155b156117ed57826040517fa9fbf51f0000000000000000000000000000000000000000000000000000000081526004016117e4919061207b565b60405180910390fd5b811561184f57838573ffffffffffffffffffffffffffffffffffffffff168273ffffffffffffffffffffffffffffffffffffffff167f8c5be1e5ebec7d5bd14f71427d1e84f3dd0314c0f7b2291e5b200ac8c7c3b92560405160405180910390a45b505b836004600085815260200190815260200160002060006101000a81548173ffffffffffffffffffffffffffffffffffffffff021916908373ffffffffffffffffffffffffffffffffffffffff16021790555050505050565b6118b4838383611a7b565b61196857600073ffffffffffffffffffffffffffffffffffffffff168373ffffffffffffffffffffffffffffffffffffffff160361192957806040517f7e2732890000000000000000000000000000000000000000000000000000000081526004016119209190612191565b60405180910390fd5b81816040517f177e802f00000000000000000000000000000000000000000000000000000000815260040161195f929190612afa565b60405180910390fd5b505050565b606060405180602001604052806000815250905090565b606061198f82610cd2565b50600061199a61196d565b905060008151116119ba57604051806020016040528060008152506119e5565b806119c484611b3c565b6040516020016119d5929190612858565b6040516020818303038152906040525b915050919050565b6119f78383611c0a565b611a0c611a02610d97565b6000858585611287565b505050565b60007f01ffc9a7000000000000000000000000000000000000000000000000000000007bffffffffffffffffffffffffffffffffffffffffffffffffffffffff1916827bffffffffffffffffffffffffffffffffffffffffffffffffffffffff1916149050919050565b60008073ffffffffffffffffffffffffffffffffffffffff168373ffffffffffffffffffffffffffffffffffffffff1614158015611b3357508273ffffffffffffffffffffffffffffffffffffffff168473ffffffffffffffffffffffffffffffffffffffff161480611af45750611af38484610b31565b5b80611b3257508273ffffffffffffffffffffffffffffffffffffffff16611b1a83610d5a565b73ffffffffffffffffffffffffffffffffffffffff16145b5b90509392505050565b606060006001611b4b84611d03565b01905060008167ffffffffffffffff811115611b6a57611b69612222565b5b6040519080825280601f01601f191660200182016040528015611b9c5781602001600182028036833780820191505090505b509050600082602001820190505b600115611bff578080600190039150507f3031323334353637383961626364656600000000000000000000000000000000600a86061a8153600a8581611bf357611bf2612b23565b5b04945060008503611baa575b819350505050919050565b600073ffffffffffffffffffffffffffffffffffffffff168273ffffffffffffffffffffffffffffffffffffffff1603611c7c5760006040517f64a0ae92000000000000000000000000000000000000000000000000000000008152600401611c73919061207b565b60405180910390fd5b6000611c8a83836000610db1565b9050600073ffffffffffffffffffffffffffffffffffffffff168173ffffffffffffffffffffffffffffffffffffffff1614611cfe5760006040517f73c6ac6e000000000000000000000000000000000000000000000000000000008152600401611cf5919061207b565b60405180910390fd5b505050565b600080600090507a184f03e93ff9f4daa797ed6e38ed64bf6a1f0100000000000000008310611d61577a184f03e93ff9f4daa797ed6e38ed64bf6a1f0100000000000000008381611d5757611d56612b23565b5b0492506040810190505b6d04ee2d6d415b85acef81000000008310611d9e576d04ee2d6d415b85acef81000000008381611d9457611d93612b23565b5b0492506020810190505b662386f26fc100008310611dcd57662386f26fc100008381611dc357611dc2612b23565b5b0492506010810190505b6305f5e1008310611df6576305f5e1008381611dec57611deb612b23565b5b0492506008810190505b6127108310611e1b576127108381611e1157611e10612b23565b5b0492506004810190505b60648310611e3e5760648381611e3457611e33612b23565b5b0492506002810190505b600a8310611e4d576001810190505b80915050919050565b6000604051905090565b600080fd5b600080fd5b60007fffffffff0000000000000000000000000000000000000000000000000000000082169050919050565b611e9f81611e6a565b8114611eaa57600080fd5b50565b600081359050611ebc81611e96565b92915050565b600060208284031215611ed857611ed7611e60565b5b6000611ee684828501611ead565b91505092915050565b60008115159050919050565b611f0481611eef565b82525050565b6000602082019050611f1f6000830184611efb565b92915050565b600081519050919050565b600082825260208201905092915050565b60005b83811015611f5f578082015181840152602081019050611f44565b60008484015250505050565b6000601f19601f8301169050919050565b6000611f8782611f25565b611f918185611f30565b9350611fa1818560208601611f41565b611faa81611f6b565b840191505092915050565b60006020820190508181036000830152611fcf8184611f7c565b905092915050565b6000819050919050565b611fea81611fd7565b8114611ff557600080fd5b50565b60008135905061200781611fe1565b92915050565b60006020828403121561202357612022611e60565b5b600061203184828501611ff8565b91505092915050565b600073ffffffffffffffffffffffffffffffffffffffff82169050919050565b60006120658261203a565b9050919050565b6120758161205a565b82525050565b6000602082019050612090600083018461206c565b92915050565b61209f8161205a565b81146120aa57600080fd5b50565b6000813590506120bc81612096565b92915050565b600080604083850312156120d9576120d8611e60565b5b60006120e7858286016120ad565b92505060206120f885828601611ff8565b9150509250929050565b60008060006060848603121561211b5761211a611e60565b5b6000612129868287016120ad565b935050602061213a868287016120ad565b925050604061214b86828701611ff8565b9150509250925092565b60006020828403121561216b5761216a611e60565b5b6000612179848285016120ad565b91505092915050565b61218b81611fd7565b82525050565b60006020820190506121a66000830184612182565b92915050565b6121b581611eef565b81146121c057600080fd5b50565b6000813590506121d2816121ac565b92915050565b600080604083850312156121ef576121ee611e60565b5b60006121fd858286016120ad565b925050602061220e858286016121c3565b9150509250929050565b600080fd5b600080fd5b7f4e487b7100000000000000000000000000000000000000000000000000000000600052604160045260246000fd5b61225a82611f6b565b810181811067ffffffffffffffff8211171561227957612278612222565b5b80604052505050565b600061228c611e56565b90506122988282612251565b919050565b600067ffffffffffffffff8211156122b8576122b7612222565b5b6122c182611f6b565b9050602081019050919050565b82818337600083830152505050565b60006122f06122eb8461229d565b612282565b90508281526020810184848401111561230c5761230b61221d565b5b6123178482856122ce565b509392505050565b600082601f83011261233457612333612218565b5b81356123448482602086016122dd565b91505092915050565b6000806000806080858703121561236757612366611e60565b5b6000612375878288016120ad565b9450506020612386878288016120ad565b935050604061239787828801611ff8565b925050606085013567ffffffffffffffff8111156123b8576123b7611e65565b5b6123c48782880161231f565b91505092959194509250565b600067ffffffffffffffff8211156123eb576123ea612222565b5b6123f482611f6b565b9050602081019050919050565b600061241461240f846123d0565b612282565b9050828152602081018484840111156124305761242f61221d565b5b61243b8482856122ce565b509392505050565b600082601f83011261245857612457612218565b5b8135612468848260208601612401565b91505092915050565b6000806040838503121561248857612487611e60565b5b6000612496858286016120ad565b925050602083013567ffffffffffffffff8111156124b7576124b6611e65565b5b6124c385828601612443565b9150509250929050565b600080604083850312156124e4576124e3611e60565b5b60006124f2858286016120ad565b9250506020612503858286016120ad565b9150509250929050565b7f4e487b7100000000000000000000000000000000000000000000000000000000600052602260045260246000fd5b6000600282049050600182168061255457607f821691505b6020821081036125675761256661250d565b5b50919050565b6000606082019050612582600083018661206c565b61258f6020830185612182565b61259c604083018461206c565b949350505050565b600081905092915050565b50565b60006125bf6000836125a4565b91506125ca826125af565b600082019050919050565b60006125e0826125b2565b9150819050919050565b7f4661696c656420726566756e6400000000000000000000000000000000000000600082015250565b6000612620600d83611f30565b915061262b826125ea565b602082019050919050565b6000602082019050818103600083015261264f81612613565b9050919050565b7f496e76616c69642076616c756500000000000000000000000000000000000000600082015250565b600061268c600d83611f30565b915061269782612656565b602082019050919050565b600060208201905081810360008301526126bb8161267f565b9050919050565b7f4e487b7100000000000000000000000000000000000000000000000000000000600052601160045260246000fd5b60006126fc82611fd7565b91507fffffffffffffffffffffffffffffffffffffffffffffffffffffffffffffffff820361272e5761272d6126c2565b5b600182019050919050565b600081519050919050565b600082825260208201905092915050565b600061276082612739565b61276a8185612744565b935061277a818560208601611f41565b61278381611f6b565b840191505092915050565b60006080820190506127a3600083018761206c565b6127b0602083018661206c565b6127bd6040830185612182565b81810360608301526127cf8184612755565b905095945050505050565b6000815190506127e981611e96565b92915050565b60006020828403121561280557612804611e60565b5b6000612813848285016127da565b91505092915050565b600081905092915050565b600061283282611f25565b61283c818561281c565b935061284c818560208601611f41565b80840191505092915050565b60006128648285612827565b91506128708284612827565b91508190509392505050565b60008190508160005260206000209050919050565b60006020601f8301049050919050565b600082821b905092915050565b6000600883026128de7fffffffffffffffffffffffffffffffffffffffffffffffffffffffffffffffff826128a1565b6128e886836128a1565b95508019841693508086168417925050509392505050565b6000819050919050565b600061292561292061291b84611fd7565b612900565b611fd7565b9050919050565b6000819050919050565b61293f8361290a565b61295361294b8261292c565b8484546128ae565b825550505050565b600090565b61296861295b565b612973818484612936565b505050565b5b818110156129975761298c600082612960565b600181019050612979565b5050565b601f8211156129dc576129ad8161287c565b6129b684612891565b810160208510156129c5578190505b6129d96129d185612891565b830182612978565b50505b505050565b600082821c905092915050565b60006129ff600019846008026129e1565b1980831691505092915050565b6000612a1883836129ee565b9150826002028217905092915050565b612a3182611f25565b67ffffffffffffffff811115612a4a57612a49612222565b5b612a54825461253c565b612a5f82828561299b565b600060209050601f831160018114612a925760008415612a80578287015190505b612a8a8582612a0c565b865550612af2565b601f198416612aa08661287c565b60005b82811015612ac857848901518255600182019150602085019450602081019050612aa3565b86831015612ae55784890151612ae1601f8916826129ee565b8355505b6001600288020188555050505b505050505050565b6000604082019050612b0f600083018561206c565b612b1c6020830184612182565b9392505050565b7f4e487b7100000000000000000000000000000000000000000000000000000000600052601260045260246000fdfea26469706673582212209d7e2364cd67c521e6418920754cf6189d618441f3a1651364cf0204318dc25a64736f6c634300081b0033",
  "linkReferences": {},
  "deployedLinkReferences": {}
}